:100000000C9434000C94FD030C9451000C9451009A
:100010000C9451000C9451000C9451000C949C04CD
:100020000C9451000C9451000C9451000C94C50494
:100030000C9451000C9451000C9473040C945100D6
:100040000C9451000C9451000C943F060C945100F8
:100050000C9451000C9451000C9451000C945100DC
:100060000C9473050C94510011241FBECFEFD8E0FF
:10007000DEBFCDBF13E0A0E0B1E0E8EBF5E102C0E8
:1000800005900D92A430B107D9F724E0A4E0B3E0C5
:1000900001C01D92AD31B207E1F70E9474060C94C5
:1000A000DA0A0C94000080913E0390913F03826035
:1000B00090933F0380933E03089520E335E74091FA
:1000C0003E0350913F03CA018270992741FF0CC043
:1000D00080913E0390913F038D7F90933F038093E7
:1000E0003E0381E090E0089545E04A95F1F7000075
:1000F0002150310921F70895CF92DF92EF92FF92BC
:100100000F931F93CF93DF9300D000D0CDB7DEB70E
:1001100089E1EFE0F3E0DF011D928A95E9F787E0DE
:10012000E8E0F3E0DF011D928A95E9F78CEE809319
:100130000F038093080360E971E083E590E00E947B
:10014000EE04811103C080E090E03BC005E010E0C8
:100150008CEEF82E94EFE92E27EBD22E30EFC32E43
:10016000F98242E060EDCE0101960E9458050E949E
:100170005D00892B11F18A818835C9F449E168E86D
:100180008FE093E00E9458050E945D00892B79F072
:10019000EA82DB82CC8264E0CE0101960E944805AF
:1001A0000E945D00892B19F081E090E00AC08FE386
:1001B0009CE90197F1F700C000000150110981F698
:1001C000C2CF0F900F900F900F90DF91CF911F91A2
:1001D0000F91FF90EF90DF90CF90089547E067EF89
:1001E00088E093E00C9458058F929F92AF92BF9253
:1001F000CF92DF92EF92FF92E8E0F3E08481958165
:10020000982789279827A0E0B0E024E0880F991F5D
:10021000AA1FBB1F2A95D1F7268122952F70822B0A
:10022000EFE0F3E04181528160E070E06C017D011C
:1002300034E0F594E794D794C7943A95D1F7C41A6B
:10024000D50AE60AF70A23E0B595A795979587950D
:100250002A95D1F7440F551F661F771F4C015D018A
:10026000841A950AA60AB70AA5019401A381B4814C
:100270000E94AD0A4B015C014BE0B594A7949794A2
:1002800087944A95D1F7A7019601C701B6010E944C
:10029000290A9B01AC016CE0559547953795279548
:1002A0006A95D1F7A581B6810E94AD0ADC01CB0128
:1002B0007EE0B595A795979587957A95D1F7A50195
:1002C0009401280F391F4A1F5B1F209304033093AA
:1002D00005034093060350930703A5E0B0E00E9496
:1002E000A20ADC01CB0180589F4FAF4FBF4F692F4F
:1002F0007A2F8B2F992787FD9A952AE030E040E0EE
:1003000050E00E94830AC901FF90EF90DF90CF90E8
:10031000BF90AF909F908F9008954F925F926F9291
:100320007F928F929F92AF92BF92CF92DF92EF9285
:10033000FF92CF93DF9300D000D0CDB7DEB780918E
:10034000040390910503A0910603B0910703B595AE
:10035000A795979587959C01AD013A5F4109510991
:1003600029833A834B835C83CA01B90132E09595B6
:100370008795779567953A95D1F79B01AC010E94D7
:10038000290A4B015C01A0911A03B0911B039B0148
:10039000AC016DE055954795379527956A95D1F74E
:1003A0000E94AD0A6B017C0173E0F594E794D79449
:1003B000C7947A95D1F7A0911803B09119032981B8
:1003C0003A814B815C810E94AD0ADC01CB01B5957D
:1003D000A795979587958C0D9D1DAE1DBF1DF2E1CC
:1003E000B595A79597958795FA95D1F79C01AD019D
:1003F00030584F4F5F4FA0911603B09117030E94E2
:10040000A20A2B013C01AFE075946794579447947E
:10041000AA95D1F7411451046104710409F4DDC0B7
:10042000C0900903D0900A03DC24CD24DC24E12C05
:10043000F12C54E0CC0CDD1CEE1CFF1C5A95D1F7BE
:10044000A50194016BE055954795379527956A95D9
:10045000D1F7A0912003B09121030E94AD0A4B0176
:100460005C01A0911E03B0911F0329813A814B8149
:100470005C810E94AD0ADC01CB01880F991FAA1F85
:10048000BB1F880E991EAA1EBB1ED501C401E2E047
:10049000B595A79597958795EA95D1F780901C0318
:1004A00090901D03092C000CAA08BB085401992444
:1004B0008824880E991EAA1EBB1EACE0B594A79492
:1004C00097948794AA95D1F780910B0382958F70AA
:1004D000A7019601282BDA01C901A5019401280F73
:1004E000391F4A1F5B1FABECB3EF0E94B00A805B61
:1004F0009C4397FD0BC0660F771F881F991FA301B0
:1005000092010E94610A69017A010AC0A301920165
:100510000E94610A69017A01CC0CDD1CEE1CFF1CF3
:10052000C701B60123E096958795779567952A953B
:10053000D1F79B01AC010E94290A9B01AC016DE03F
:1005400056954795379527956A95D1F7A09126033B
:10055000B09127030E94AD0A4B015C017CE0B59489
:10056000A794979487947A95D1F7A7019601E2E032
:100570005695479537952795EA95D1F7A09124038D
:10058000B09125030E94AD0ADC01CB01FDE0B595D9
:10059000A79597958795FA95D1F7B501A401480FCE
:1005A000591F6A1F7B1F8091220390912303092EFC
:1005B000000CAA0BBB0B840F951FA61FB71F24E0CE
:1005C000B595A795979587952A95D1F7BC01CD014B
:1005D0006C0D7D1D8E1D9F1D03C060E070E0CB0182
:1005E0002AE030E040E050E00E94610AC9010F902B
:1005F0000F900F900F90DF91CF91FF90EF90DF90D1
:10060000CF90BF90AF909F908F907F906F905F90B2
:100610004F900895613021E07207A8F4DC018FEF5C
:100620004FEF9D91242F292730E0F901EC5FFD4F1A
:1006300040814827F901EC5FFE4F8081615089F7C6
:1006400090E0942B089580E090E008950F931F931D
:10065000CF938A010196C82FCC0F8C2F0E94580788
:10066000B80181E08C0FCF911F910F910C94580726
:10067000CF930E947507C0E08C2F0E946B078823E0
:1006800021F08C2F0E94DF0303C08C2F0E94CF0328
:10069000CF5FC43089F7CF9108950E94F400BC0168
:1006A00080E00E9458070E948D01BC0181E00C94FB
:1006B0005807EF92FF920F931F93CF93DF937B0125
:1006C0008C01C0E0D0E0F801808191819701281B66
:1006D000390BC9018D32914050F04FEF5FEF66E565
:1006E00075EFCE010E942603F801F182E082219687
:1006F0000E5F1F4FC330D10531F7DF91CF911F91AE
:100700000F91FF90EF900895CF92DF92EF92FF92BA
:100710000F931F93CF93DF9300D000D000D0CDB7BD
:10072000DEB76C017B01CE0101960E946C09892B1A
:10073000E1F00E818FEF800F8330B8F410E00150AC
:1007400011094C81042E000C550B6A817B81C80174
:100750000E9426036D81802F0E946307F801EE0F2F
:10076000FF1FEC0DFD1DF182E08226960FB6F89476
:10077000DEBF0FBECDBFDF91CF911F910F91FF90D4
:10078000EF90DF90CF90089580B7806880BF10927F
:100790007A008FE088B987B18F6087B9089581307A
:1007A00041F028F0823039F0833039F00895409AD2
:1007B0000895419A0895429A0895439A0895813080
:1007C00041F028F0823039F0833039F008954098B4
:1007D00008954198089542980895439808959093F4
:1007E00029038093280381E0809369000895E09AAB
:1007F000E89A0895E898E09A08951F920F920FB62C
:100800000F9211242F933F934F935F936F937F9396
:100810008F939F93AF93BF93EF93FF93E091280340
:10082000F0912903309731F04A9B02C081E001C06A
:1008300080E00995FF91EF91BF91AF919F918F91CA
:100840007F916F915F914F913F912F910F900FBECC
:100850000F901F90189515BC2CE627BD90932F0381
:1008600080932E0382E084BD80936E00089515BCB2
:1008700016BCA99A84E085BD089515BC0895109210
:10088000B10090932B0380932A0382E08093B00001
:10089000809370000895E1EBF0E010821092B200B6
:1008A000B99A23E0969587952A95E1F78150809330
:1008B000B30085E0808308951092B10008951092EE
:1008C000810090932D0380932C0388E09DE3909307
:1008D00089008093880082E080936F0008958DE006
:1008E0008093810008951F920F920FB60F921124EA
:1008F0002F933F934F935F936F937F938F939F9328
:10090000AF93BF93EF93FF93E0912E03F0912F03EA
:10091000309709F00995FF91EF91BF91AF919F91A9
:100920008F917F916F915F914F913F912F910F9098
:100930000FBE0F901F9018951F920F920FB60F9237
:1009400011242F933F934F935F936F937F938F93D4
:100950009F93AF93BF93EF93FF93E0912A03F0919E
:100960002B03309709F00995FF91EF91BF91AF915B
:100970009F918F917F916F915F914F913F912F91B7
:100980000F900FBE0F901F9018951F920F920FB6E9
:100990000F9211242F933F934F935F936F937F9305
:1009A0008F939F93AF93BF93EF93FF93E0912C03AB
:1009B000F0912D03309709F00995FF91EF91BF91C8
:1009C000AF919F918F917F916F915F914F913F91E7
:1009D0002F910F900FBE0F901F901895AF92BF925E
:1009E000CF92DF92EF92FF921F93CF93DF9300D0CD
:1009F00000D0CDB7DEB7909332038093310380915E
:100A0000000190910101A0910201B091030189833D
:100A10009A83AB83BC8380E89EE30E94390A6B0112
:100A2000E12CF12C80E1C81AD108E108F108FE019F
:100A300031965F0110E0F50121915F0130E040E067
:100A400050E0C701B6010E94610AC90101978F3FBA
:100A5000910560F42093B8001093B9008FEF809354
:100A6000BB0084E08093BC0081E004C01F5F1430B1
:100A700011F780E00F900F900F900F90DF91CF91C2
:100A80001F91FF90EF90DF90CF90BF90AF900895AF
:100A90001092380390933B0380933A03FC0120812A
:100AA0002E7F20836093390385EA8093BC000895EC
:100AB00090933403809333034093370321E02093D2
:100AC0003803FC0180818E7FE5E3F3E0808361835E
:100AD000F0933B03E0933A0382E08093390385EA85
:100AE0008093BC0008951F920F920FB60F921124AD
:100AF0002F933F934F935F936F937F938F939F9326
:100B0000AF93BF93EF93FF938091B9008C7F8832AE
:100B100029F140F4803101F1883101F1883009F088
:100B200077C01AC0803409F458C020F4883309F41F
:100B30006DC06EC0803509F442C0883509F068C0C8
:100B400080913003E0913A03F0913B03E80FF11DEF
:100B50008091BB0080834FC010923003809130039E
:100B600090913903891790F4E0913A03F0913B0397
:100B7000E80FF11D80818093BB0085E88093BC0065
:100B8000809130038F5F8093300345C0809138039C
:100B9000882389F110923803E0913303F0913403F4
:100BA000F0933B03E0933A038081816080838091DE
:100BB00037038093390381E08093300327C080910D
:100BC0003003E0913A03F0913B03E80FF11D90915F
:100BD000BB0090838F5F8093300380913903209115
:100BE000300330E090E001972817390714F485ECC2
:100BF00010C085E80EC084E98093BC00E091310309
:100C0000F0913203309739F0099505C085EA01C0AB
:100C100084E08093BC00FF91EF91BF91AF919F91D1
:100C20008F917F916F915F914F913F912F910F9095
:100C30000FBE0F901F9018951092C00026E02093D1
:100C4000C2001092C50029E12093C40090933D0397
:100C500080933C03089588E98093C1000895680F4C
:100C6000791F8617970751F0FC012191CF0120933E
:100C7000C6002091C00025FFFCCFF3CF08951F923E
:100C80000F920FB60F9211242F933F934F935F93C0
:100C90006F937F938F939F93AF93BF93EF93FF9344
:100CA000E0913C03F0913D03309719F08091C6002C
:100CB0000995FF91EF91BF91AF919F918F917F9196
:100CC0006F915F914F913F912F910F900FBE0F90B9
:100CD0001F90189580913E0390913F0384609093FC
:100CE0003F0380933E030895CF93DF9300D000D05D
:100CF00000D0CDB7DEB798E288E10FB6F894A8959A
:100D0000809360000FBE909360000E94C4030E9415
:100D100040070E9460098AE696E00E945F0478948A
:100D20000E947C006C0166E575EF80E00E94580728
:100D300060E070E081E00E945807CE0101967C01DE
:100D400000E010E0B82EAF2C4FEF5FEF66E575EFD7
:100D5000C8010E942603F701119211927F010F5FD3
:100D60001F4F0330110581F780E00E94CF0381E01F
:100D70000E94CF0382E00E94CF0383E00E94CF0352
:100D80000E946F0400E010E08EE1E82EF12C8091CB
:100D90003E0390913F0380FF0BC080913E039091F2
:100DA0003F038E7F90933F0380933E030E9438035E
:100DB00080913E0390913F0382FF1BC080913E03D0
:100DC00090913F038B7F90933F0380933E030F5F8F
:100DD0001F4FB8018B2D9A2D0E945903C114D104C5
:100DE00041F0C801B7010E94390A892B11F40E9411
:100DF000EE0080913E0390913F0381FF0BC08091F4
:100E00003E0390913F038D7F90933F0380933E0379
:100E10000E944D0380913E0390913F0383FF0EC0DB
:100E200080913E0390913F03877F90933F0380938F
:100E30003E03B8018B2D9A2D0E948403A895A7CF5D
:100E40002091770330917803203231055CF4A901B9
:100E50004F5F5F4F5093780340937703F901E95A4E
:100E6000FC4F80830C9437040E943D0480913E0324
:100E700090913F03816090933F0380933E030895D8
:100E800082E2E7E5F3E0DF011D928A95E9F787E169
:100E9000E0E4F3E0DF011D928A95E9F784E397E04F
:100EA0000E942B0480E297E00E941C060C942B0603
:100EB000883040F4E82FF0E0EE0FFF1FE05CFC4FBD
:100EC000718360830895833028F4E82FF0E0E05CBC
:100ED000FC4F648B0895843030F4E82FF0E0E05C40
:100EE000FC4F8089089580E00895EF92FF920F9360
:100EF0001F93CF93DF93CDB7DEB768970FB6F89403
:100F0000DEBF0FBECDBFF090570321E0F21611F007
:100F100010E0FEC000917703109178031127025072
:100F20001109B80187E593E00E940A03F801E95A24
:100F3000FC4F2081318132272327322782179307E4
:100F400039F7F982209158032A83A0915903B0916F
:100F50005A039A2F8B2F60915B0370915C03562F7D
:100F6000472F243009F457C028F4213051F02230A3
:100F700061F1B5C0253009F473C02F3009F486C083
:100F8000AEC04115510509F4A5C0BC01640F751F21
:100F90006530710508F09EC02B83FC01E05BFC4FBF
:100FA00090E020E030E061E070E08191882339F04A
:100FB000DB01022E01C0AA0F0A94EAF79A2B2F5FD9
:100FC0003F4F4217530789F723C04115510509F4D4
:100FD00081C09C01240F351F2430310508F07AC0F0
:100FE000FB82FC01EC5AFC4F90E020E030E061E035
:100FF00070E08191882339F0DB01022E01C0AA0F35
:101000000A94EAF79A2B2F5F3F4F4217530789F74D
:101010009C8314E09BC04115510509F45BC09C0101
:10102000240F351F2930310508F054C0272F220F17
:101030002B83880F991FFC01E05CFC4FDE011496A6
:1010400080E090E0219131913227232732272D93A0
:101050003D93019684179507A9F71B811D5F76C004
:1010600084309105B8F541152FEF520729F4FC01A2
:10107000E05CFC4FF08A65C0452B29F4FC01E05C84
:10108000FC4F108A5EC010E083E026C04115510578
:1010900009F19C01240F351F25303105D8F420912A
:1010A0005E03FC01E05CFC4F80E090E030E011E08A
:1010B0007901082E02C0F594E7940A94E2F7E0FE65
:1010C00002C0108B01C0108A0196319684179507D3
:1010D00079F737C010E082E0882339F001C081E061
:1010E0009A8190689A838B8313E0E12EF12CB701EB
:1010F000CE0101960E940A03E1E0F0E0EC0FFD1F33
:10110000EE0DFF1D982789279827918380831E5F06
:1011100010927803109277030E942B06612F70E0E3
:10112000CE0101960E942F0668960FB6F894DEBF96
:101130000FBECDBFDF91CF911F910F91FF90EF9028
:101140000895BC83AB837E836D8316E080E0C4CFBB
:10115000E091790390917B0396959695969528E07A
:10116000E29FF0011124E358FC4FE90FF11D90813B
:10117000990F892B808308950E945C0483E08093FB
:101180007C0310927B03089590917C03882309F4DB
:101190003FC09430A1F0963069F0933079F588E53E
:1011A00092E00E944B0480917B038F5F80937B03CE
:1011B00081E02BC080917B038F5F80937B0380E96C
:1011C00091E00E944B0480917B038832A9F4109235
:1011D0007B03809179038F5F843118F480937903C6
:1011E00002C01092790380917A03843118F48F5FE2
:1011F00080937A0382E009C085E007C088E592E029
:101200000E944B0481E080937B0380937C030895CC
:101210009330B9F048F4923091F488E592E00E945E
:101220004B0410927C030895953029F0963039F4E0
:1012300081E090E002C080E090E00C94A8080C945B
:10124000BC0808950E945C0480917C03813049F0C1
:1012500078F0853009F580E991E00E944B0486E042
:1012600018C082E080937C0380E991E00C944B04E9
:1012700080E991E00E944B0480917B0390E0049709
:1012800014F483E006C084E080937C0310927B0317
:10129000089580937C0308950E94BC0880917A038E
:1012A000882369F00E94FA0380913E0390913F03E6
:1012B000886090933F0380933E030C94BC0808958C
:1012C00082E299E00E943F040E94BC0884EC98E00E
:1012D0000E94EF030C94F7039F92AF92BF92CF92BC
:1012E000DF92EF92FF920F931F93CF93DF93EC0166
:1012F00000E010917A03011740F000E0912CC12E1C
:10130000D12C21E0C21AD10845C0602F70E0FB014A
:1013100033E0EE0FFF1F3A95E1F7E358FC4F918160
:101320008281890F9381890F9081890F9481981709
:10133000C1F0115010937A03112399F0412F50E01E
:10134000461B570BA3E0440F551FAA95E1F7B3E0E6
:10135000660F771FBA95E1F76B577C4FCF010E945C
:10136000D10A0F5FC6CF38E0A39EB00111246358A5
:101370007C4F48E050E0C7010E94C40A892B09F461
:10138000B394A394A11678F39B1418F400937903F3
:101390009B2C0F5F802F90E08C159D0564F4A02E90
:1013A000B12C23E0880F991F2A95E1F7DC01A3589F
:1013B000BC4F7D01E7CFB1E0B91578F5E091790335
:1013C00028E0E29FF0011124E358FC4F80818883DC
:1013D0008181881F8827881F8C83818182958370F3
:1013E0008D8321812F7030E0322F22278281282B9C
:1013F0002054314045E0429FC001439F900D11248D
:1014000069E070E00E944D0A645F71407A836983ED
:1014100083818B83C1E0D0E002C0C0E0D0E01092B5
:10142000790310927A0380EAEDE7F3E0DF011D9281
:101430008A95E9F70E94F703CE01DF91CF911F91C2
:101440000F91FF90EF90DF90CF90BF90AF909F9063
:101450000895DB018F939F930E94A20ABF91AF91E1
:10146000A29F800D911DA39F900DB29F900D1124FE
:101470000895AA1BBB1B51E107C0AA1FBB1FA617DB
:10148000B70710F0A61BB70B881F991F5A95A9F72D
:1014900080959095BC01CD01089597FB072E16F419
:1014A000009407D077FD09D00E94390A07FC05D0C7
:1014B0003EF4909581959F4F0895709561957F4F6B
:1014C0000895A1E21A2EAA1BBB1BFD010DC0AA1F85
:1014D000BB1FEE1FFF1FA217B307E407F50720F09D
:1014E000A21BB30BE40BF50B661F771F881F991F18
:1014F0001A9469F760957095809590959B01AC0161
:10150000BD01CF010895052E97FB1EF400940E94A3
:101510009A0A57FD07D00E94610A07FC03D04EF4D7
:101520000C949A0A50954095309521953F4F4F4F16
:101530005F4F089590958095709561957F4F8F4F7F
:101540009F4F08950E94B50AA59F900DB49F900DDE
:10155000A49F800D911D11240895B7FF0C94A20A39
:101560000E94A20A821B930B0895A29FB001B39F11
:10157000C001A39F700D811D1124911DB29F700D9C
:10158000811D1124911D0895FB01DC0104C08D9182
:101590000190801921F441505040C8F7881B990BE5
:1015A0000895FB01DC0102C001900D9241505040B2
:0815B000D8F70895F894FFCF6D
:1015B8000208208000C0C101C30302C2C60607C7D3
:1015C80005C5C404CC0C0DCD0FCFCE0E0ACACB0B6B
:1015D800C90908C8D81819D91BDBDA1A1EDEDF1F9B
:1015E800DD1D1CDC14D4D515D71716D6D21213D38B
:1015F80011D1D010F03031F133F3F23236F6F7373B
:10160800F53534F43CFCFD3DFF3F3EFEFA3A3BFB2A
:1016180039F9F83828E8E929EB2B2AEAEE2E2FEFDA
:101628002DEDEC2CE42425E527E7E62622E2E3234A
:10163800E12120E0A06061A163A3A26266A6A7677A
:10164800A56564A46CACAD6DAF6F6EAEAA6A6BABEA
:1016580069A9A86878B8B979BB7B7ABABE7E7FBF1A
:101668007DBDBC7CB47475B577B7B67672B2B3730A
:10167800B17170B0509091519353529296565797BA
:10168800559594549C5C5D9D5F9F9E5E5A9A9B5BAA
:1016980099595898884849894B8B8A4A4E8E8F4F5A
:1016A8008D4D4C8C448485458747468682424383CA
:1016B8004181804000C1814001C0804101C080411A
:1016C80000C1814001C0804100C1814000C181400A
:1016D80001C0804101C0804100C1814000C18140FA
:1016E80001C0804100C1814001C0804101C08041EA
:1016F80000C1814001C0804100C1814000C18140DA
:1017080001C0804100C1814001C0804101C08041C9
:1017180000C1814000C1814001C0804101C08041B9
:1017280000C1814001C0804100C1814000C18140A9
:1017380001C0804101C0804100C1814000C1814099
:1017480001C0804100C1814001C0804101C0804189
:1017580000C1814000C1814001C0804101C0804179
:1017680000C1814001C0804100C1814000C1814069
:1017780001C0804100C1814001C0804101C0804159
:1017880000C1814001C0804100C1814000C1814049
:1017980001C0804101C0804100C1814000C1814039
:1017A80001C0804100C1814001C0804101C0804129
:0417B80000C18140AB
:00000001FF
