:100000000C9434000C9495060C9451000C945100FF
:100010000C9451000C9451000C9451000C942A073C
:100020000C9451000C9451000C9451000C94030852
:100030000C9451000C9451000C94D5070C94510071
:100040000C9451000C9451000C9462090C945100D2
:100050000C9451000C9451000C9451000C945100DC
:100060000C949C080C94510011241FBECFEFD8E0D3
:10007000DEBFCDBF13E0A0E0B1E0E4E5F4E102C0F3
:1000800005900D92A430B107D9F723E0A4E0B3E0C6
:1000900001C01D92AB37B207E1F70E94C3030C9475
:1000A000280A0C94000020E335E740912803509182
:1000B0002903CA018270992741FF0CC0809128034F
:1000C000909129038D7F909329038093280381E0E9
:1000D00090E0089545E04A95F1F70000215031097C
:1000E00021F70895CF92DF92EF92FF920F931F9323
:1000F000CF93DF9300D000D0CDB7DEB789E1EFE03A
:10010000F3E0DF011D928A95E9F787E0E8E0F3E08C
:10011000DF011D928A95E9F78CEE80930F0380939F
:10012000080380E991E00E941A08811103C080E071
:1001300090E03BC005E010E08CEEF82E94EFE92E45
:1001400027EBD22E30EFC32EF98242E060EDCE01D4
:1001500001960E9481080E945300892B11F18A8127
:100160008835C9F449E168E88FE093E00E9481088E
:100170000E945300892B79F0EA82DB82CC8264E012
:10018000CE0101960E9471080E945300892B19F03C
:1001900081E090E00AC08FE39CE90197F1F700C08D
:1001A00000000150110981F6C2CF0F900F900F90FF
:1001B0000F90DF91CF911F910F91FF90EF90DF9003
:1001C000CF90089547E067EF88E093E00C948108B2
:1001D0008F929F92AF92BF92CF92DF92EF92FF9257
:1001E000E8E0F3E084819581982789279827A0E0AB
:1001F000B0E024E0880F991FAA1FBB1F2A95D1F7F2
:10020000268122952F70822BEFE0F3E0418152810D
:1002100060E070E06C017D0134E0F594E794D794E0
:10022000C7943A95D1F7C41AD50AE60AF70A23E02B
:10023000B595A795979587952A95D1F7440F551FA2
:10024000661F771F4C015D01841A950AA60AB70A3A
:10025000A5019401A381B4810E94110A4B015C01A4
:100260004BE0B594A794979487944A95D1F7A7014A
:100270009601C701B6010E948D099B01AC016CE09B
:1002800055954795379527956A95D1F7A581B681FC
:100290000E94110ADC01CB017EE0B595A7959795E8
:1002A00087957A95D1F7A5019401280F391F4A1F28
:1002B0005B1F209304033093050340930603509380
:1002C0000703A5E0B0E00E94060ADC01CB018058DC
:1002D0009F4FAF4FBF4F692F7A2F8B2F992787FDE5
:1002E0009A952AE030E040E050E00E94E709C90119
:1002F000FF90EF90DF90CF90BF90AF909F908F9046
:1003000008954F925F926F927F928F929F92AF92D9
:10031000BF92CF92DF92EF92FF92CF93DF9300D004
:1003200000D0CDB7DEB78091040390910503A09172
:100330000603B0910703B595A795979587959C01FE
:10034000AD013A5F4109510929833A834B835C83AC
:10035000CA01B90132E095958795779567953A95E9
:10036000D1F79B01AC010E948D094B015C01A0916A
:100370001A03B0911B039B01AC016DE055954795A5
:10038000379527956A95D1F70E94110A6B017C0178
:1003900073E0F594E794D794C7947A95D1F7A09138
:1003A0001803B091190329813A814B815C810E9425
:1003B000110ADC01CB01B595A795979587958C0D12
:1003C0009D1DAE1DBF1DF2E1B595A795979587952B
:1003D000FA95D1F79C01AD0130584F4F5F4FA09176
:1003E0001603B09117030E94060A2B013C01AFE0EF
:1003F0007594679457944794AA95D1F74114510482
:100400006104710409F4DDC0C0900903D0900A03AF
:10041000DC24CD24DC24E12CF12C54E0CC0CDD1CBC
:10042000EE1CFF1C5A95D1F7A50194016BE0559580
:100430004795379527956A95D1F7A0912003B091FC
:1004400021030E94110A4B015C01A0911E03B0918F
:100450001F0329813A814B815C810E94110ADC01D2
:10046000CB01880F991FAA1FBB1F880E991EAA1EB9
:10047000BB1ED501C401E2E0B595A7959795879578
:10048000EA95D1F780901C0390901D03092C000C75
:10049000AA08BB08540199248824880E991EAA1E14
:1004A000BB1EACE0B594A79497948794AA95D1F716
:1004B00080910B0382958F70A7019601282BDA019A
:1004C000C901A5019401280F391F4A1F5B1FABEC1E
:1004D000B3EF0E94140A805B9C4397FD0BC0660F2C
:1004E000771F881F991FA30192010E94C509690106
:1004F0007A010AC0A30192010E94C50969017A012B
:10050000CC0CDD1CEE1CFF1CC701B60123E0969548
:100510008795779567952A95D1F79B01AC010E9445
:100520008D099B01AC016DE0569547953795279550
:100530006A95D1F7A0912603B09127030E94110A72
:100540004B015C017CE0B594A794979487947A95CD
:10055000D1F7A7019601E2E0569547953795279583
:10056000EA95D1F7A0912403B09125030E94110AC6
:10057000DC01CB01FDE0B595A79597958795FA9598
:10058000D1F7B501A401480F591F6A1F7B1F809145
:10059000220390912303092E000CAA0BBB0B840F9E
:1005A000951FA61FB71F24E0B595A795979587952A
:1005B0002A95D1F7BC01CD016C0D7D1D8E1D9F1DAF
:1005C00003C060E070E0CB012AE030E040E050E0A2
:1005D0000E94C509C9010F900F900F900F90DF91F5
:1005E000CF91FF90EF90DF90CF90BF90AF909F9012
:1005F0008F907F906F905F904F900895613021E0D1
:100600007207A8F4DC018FEF4FEF9D91242F29276B
:1006100030E0F901EC5FFD4F40814827F901EC5FC4
:10062000FE4F8081615089F790E0942B089580E01F
:1006300090E008950F931F93CF93DF938A01019663
:10064000EC01CC0FDD1FCE010E949D04B801CE014C
:100650000196DF91CF911F910F910C949D04CF9340
:10066000DF930E94BA04C0E0D0E0CE010E94B00443
:10067000882321F0CE010E940C0603C0CE010E9407
:10068000F7052196C430D10581F7DF91CF91089508
:100690000E94E800BC0180E090E00E949D040E945E
:1006A0008101BC0181E090E00C949D04EF92FF92E7
:1006B0000F931F93CF93DF937B018C01C0E0D0E0B9
:1006C000F801808191819701281B390BC9018D3276
:1006D000914050F04FEF5FEF66E575EFCE010E945D
:1006E0001A03F801F182E08221960E5F1F4FC3309A
:1006F000D10531F7DF91CF911F910F91FF90EF90CE
:100700000895CF92DF92EF92FF920F931F93CF93B2
:10071000DF9300D000D000D0CDB7DEB76C017B01F5
:10072000CE0101960E944506892BF1F00E818FEFD4
:10073000800F8330C8F4002E000C110B01501109FA
:100740004C81042E000C550B6A817B81C8010E94EC
:100750001A036D81C8010E94A804F801EE0FFF1F63
:10076000EC0DFD1DF182E08226960FB6F894DEBFF7
:100770000FBECDBFDF91CF911F910F91FF90EF90F2
:10078000DF90CF900895CF93DF9300D000D000D0BA
:10079000CDB7DEB798E288E10FB6F894A8958093BC
:1007A00060000FBE909360000E94EC050E948504DB
:1007B0000E948C0678940E9472006C0166E575EFC9
:1007C00080E090E00E949D0460E070E081E090E0B5
:1007D0000E949D04CE0101967C0100E010E0B82E3D
:1007E000AF2C4FEF5FEF66E575EFC8010E941A036B
:1007F000F701119211927F010F5F1F4F0330110516
:1008000081F780E090E00E94F70581E090E00E948F
:10081000F70582E090E00E94F70583E090E00E94F7
:10082000F7050E94970700E010E08EE1E82EF12C1A
:10083000809128039091290380FF0BC080912803A9
:10084000909129038E7F90932903809328030E941F
:100850002F03809128039091290382FF1BC0809170
:100860002803909129038B7F909329038093280379
:100870000F5F1F4FB8018B2D9A2D0E945603C11494
:10088000D10441F0C801B7010E949D09892B11F4E0
:100890000E94E200809128039091290381FF0BC000
:1008A00080912803909129038D7F90932903809351
:1008B00028030E944803809128039091290383FF15
:1008C0000EC08091280390912903877F909329037C
:1008D00080932803B8018B2D9A2D0E948103A8953F
:1008E000A7CF2091610330916203203231055CF47F
:1008F000A9014F5F5F4F5093620340936103F90179
:10090000EF5BFC4F80830C94920782E2E1E4F3E01A
:10091000DF011D928A95E9F787E1EAE2F3E0DF0162
:100920001D928A95E9F70E948B070E943B0981E797
:1009300094E00E945D090C944609883091053CF4CE
:10094000880F991FFC01E65DFC4F71836083089559
:100950008830910524F4FC01E65DFC4F648B08951A
:10096000843091052CF4FC01E65DFC4F80890895EC
:1009700080E00895EF92FF920F931F93CF93DF9340
:10098000CDB7DEB768970FB6F894DEBF0FBECDBF08
:10099000F090410331E0F31619F000E010E0F9C0E7
:1009A0000091610310916203B8016250710981E402
:1009B00093E00E94FE02F801E15CFC4F208131814E
:1009C0003227232732278217930739F7F98220919C
:1009D00042032A83A0914303B09144039A2F8B2FA3
:1009E0006091450370914603562F472F243009F438
:1009F00058C028F4213051F0223061F1E2C0253096
:100A000009F476C02F3009F488C0DBC041155105C8
:100A100009F4DBC0BC01640F751F6530710508F077
:100A2000D4C02B83FC01E65CFC4F90E020E030E07A
:100A300061E070E08191882339F0DB01022E01C072
:100A4000AA0F0A94EAF79A2B2F5F3F4F2417350716
:100A500089F723C04115510509F4B7C0BC01640FE3
:100A6000751F6430710508F0B0C0FB82FC01E25CC8
:100A7000FC4F90E020E030E061E070E0819188235D
:100A800039F0DB01022E01C0AA0F0A94EAF79A2B73
:100A90002F5F3F4F2417350789F79C8304E010E050
:100AA00066C04115510509F490C0BC01640F751F63
:100AB0006930710508F089C0242F220F2B83880F1D
:100AC000991FFC01E65DFC4FDE01149680E090E08A
:100AD000219131913227232732272D933D9301967F
:100AE00084179507A9F70B8110E00D5F1F4F3FC0DA
:100AF0008530910508F069C041153FEF530729F48F
:100B0000FC01E65DFC4FF08A2CC0452B09F05BC070
:100B1000FC01E65DFC4F108A24C04115510509F423
:100B200054C0FC01E40FF51F359708F04EC020912A
:100B30004803FC01E65DFC4F80E090E030E011E00E
:100B40007901082E02C0F594E7940A94E2F7E0FEDA
:100B500002C0108B01C0108A0196319648175907C0
:100B600079F7BC83AB837E836D8306E010E0B80128
:100B7000CE0101960E94FE02E1E0F0E0EC0FFD1FC5
:100B8000E00FF11F982789279827918380830E5FB4
:100B90001F4F10926203109261030E944609B80130
:100BA000CE0101960E944D0968960FB6F894DEBFFB
:100BB0000FBECDBFDF91CF911F910F91FF90EF90AE
:100BC000089581E003C083E001C082E020682A83A9
:100BD0008B8303E010E0CBCF80B7806880BF10929A
:100BE0007A008FE088B987B18F6087B90895813026
:100BF000910561F01CF4892B39F00895823091053C
:100C000039F0039739F00895409A0895419A08956C
:100C1000429A0895439A08958130910561F01CF439
:100C2000892B39F008958230910539F0039739F016
:100C300008954098089541980895429808954398DA
:100C40000895E09AE89A0895E0916303F0916403AF
:100C5000F7FD379693E0F595E7959A95E1F7E95911
:100C6000FC4F9081990F90839081892B8083089508
:100C70000E94CD0783E090E0909366038093650324
:100C800010926403109263030895CF93DF93FC01E5
:100C90009091670380916803890F90916903890F90
:100CA00020916A0390916B03820F98132DC080915D
:100CB0006703808380916803881F8827881F848347
:100CC00080916803829583708583209168032F70DB
:100CD00030E0322F222780916903282B20543140A5
:100CE00045E0429FC001439F900D112469E070E0F0
:100CF0000E94B109645F71407283618380916A03CD
:100D00008383C1E0D0E002C0C0E0D0E00E942106B1
:100D1000CE01DF91CF9108950E94A6070E94380668
:100D200081E0809369000C9421061F920F920FB608
:100D30000F9211242F933F934F935F936F937F9361
:100D40008F939F93AF93BF93EF93FF934A9B4FC0B3
:100D500080916503909166038430910591F186300E
:100D6000910591F00397C1F588E592E00E94B107E3
:100D70008091630390916403019690936403809340
:100D8000630381E090E023C080916303909164034A
:100D90000196909364038093630380916303909121
:100DA0006403889771F480912803909129038860E7
:100DB00090932903809328030E943806E898E09ACC
:100DC00038C080E991E00E94B10785E090E09093FF
:100DD0006603809365032DC088E592E00E94B10709
:100DE00081E090E09093640380936303F0CF80915F
:100DF00065039091660383309105D9F05CF4029706
:100E0000B1F488E592E00E94B10710926603109257
:100E100065030FC08530910529F0069741F481E004
:100E200090E002C080E090E00E94240602C00E9490
:100E30003806FF91EF91BF91AF919F918F917F9174
:100E40006F915F914F913F912F910F900FBE0F9037
:100E50001F9018951F920F920FB60F9211242F9387
:100E60003F934F935F936F937F938F939F93AF9332
:100E7000BF93EF93FF930E94CD07809165039091FC
:100E800066038130910531F08530910531F1892B70
:100E900079F50BC082E090E0909366038093650340
:100EA00080E991E00E94B10725C080E991E00E94AD
:100EB000B107809163039091640304971CF483E06D
:100EC00090E011C084E090E0909366038093650306
:100ED00010926403109263030DC080E991E00E94B8
:100EE000B10786E090E0909366038093650302C0AB
:100EF0000E943806FF91EF91BF91AF919F918F9122
:100F00007F916F915F914F913F912F910F900FBE05
:100F10000F901F90189582E084BD9CE697BD80934A
:100F20006E00089515BC16BC84E085BD089588E068
:100F30009DE3909389008093880082E080936F0006
:100F4000109280008DE0809381000895E0E7F0E04A
:100F500080818D7F808382E08093B0001092B10009
:100F60000895209170002D7F209370001092B100A1
:100F700097FD079623E0959587952A95E1F780934D
:100F8000B3001092B200B99A809170008260809391
:100F9000700085E08093B1000895E0E7F0E0808183
:100FA0008D7F80831092B10008951F920F920FB62B
:100FB0000F9211242F933F934F935F936F937F93DF
:100FC0008F939F93AF93BF93EF93FF9315BC0E94B2
:100FD0004A09809128039091290381609093290305
:100FE00080932803FF91EF91BF91AF919F918F91D3
:100FF0007F916F915F914F913F912F910F900FBE15
:101000000F901F9018951F920F920FB60F921124F8
:101010008F939F93809128039091290384609093EC
:101020002903809328039F918F910F900FBE0F90FB
:101030001F901895AF92BF92CF92DF92EF92FF92DE
:101040001F93CF93DF9300D000D0CDB7DEB7BC01A4
:101050008091000190910101A0910201B0910301E2
:1010600089839A83AB83BC8380E89EE30E949D09B9
:101070006B01E12CF12C80E1C81AD108E108F108DC
:10108000FE0131965F0110E0F50121915F0130E032
:1010900040E050E0C701B6010E94C509C9010197AF
:1010A0008F3F910560F42093B8001093B9008FEF43
:1010B0008093BB0084E08093BC0081E004C01F5F8C
:1010C000143011F780E00F900F900F900F90DF9188
:1010D000CF911F91FF90EF90DF90CF90BF90AF9096
:1010E0000895109275039093780380937703FC0121
:1010F00020812E7F20836093760385EA8093BC0055
:10110000089590937103809370034093740321E0DA
:1011100020937503FC0180818E7FE2E7F3E08083FA
:101120006183F0937803E093770382E08093760302
:1011300085EA8093BC0008951F920F920FB60F921C
:1011400011242F933F938F939F93EF93FF9380915D
:10115000B9008C7F883229F140F4803101F1883167
:1011600001F1883009F079C01AC0803409F458C000
:1011700020F4883309F46FC070C0803509F442C090
:10118000883509F06AC080916F03E0917703F09190
:101190007803E80FF11D8091BB0080834FC010924F
:1011A0006F0380916F0390917603891790F4E0911B
:1011B0007703F0917803E80FF11D80818093BB00E5
:1011C00085E88093BC0080916F038F5F80936F03ED
:1011D00047C080917503882389F110927503E091CF
:1011E0007003F0917103F0937803E09377038081AB
:1011F00081608083809174038093760381E0809383
:101200006F0329C080916F03E0917703F091780319
:10121000E80FF11D9091BB0090838F5F80936F0367
:101220008091760320916F0330E090E001972817BA
:10123000390714F485EC12C085E810C084E9809366
:10124000BC00809128039091290382609093290328
:101250008093280305C085EA01C084E08093BC0028
:10126000FF91EF919F918F913F912F910F900FBE22
:101270000F901F9018951092C00086E08093C200D6
:101280001092C50089E18093C400089588E9809395
:10129000C10008951092C1000895FC019F01281B10
:1012A000390B2617370744F421912093C60020916B
:1012B000C00025FFFCCFF2CF089590937A0380936E
:1012C000790308951F920F920FB60F9211242F9356
:1012D0003F934F935F936F937F938F939F93AF93BE
:1012E000BF93EF93FF93E0917903F0917A033097E6
:1012F00019F08091C6000995FF91EF91BF91AF91D0
:101300009F918F917F916F915F914F913F912F911D
:101310000F900FBE0F901F901895DB018F939F9336
:101320000E94060ABF91AF91A29F800D911DA39FBD
:10133000900DB29F900D11240895AA1BBB1B51E183
:1013400007C0AA1FBB1FA617B70710F0A61BB70B35
:10135000881F991F5A95A9F780959095BC01CD01DA
:10136000089597FB072E16F4009407D077FD09D057
:101370000E949D0907FC05D03EF4909581959F4FF2
:101380000895709561957F4F0895A1E21A2EAA1BCA
:10139000BB1BFD010DC0AA1FBB1FEE1FFF1FA21725
:1013A000B307E407F50720F0A21BB30BE40BF50B22
:1013B000661F771F881F991F1A9469F760957095AB
:1013C000809590959B01AC01BD01CF010895052E3C
:1013D00097FB1EF400940E94FE0957FD07D00E945F
:1013E000C50907FC03D04EF40C94FE0950954095B6
:1013F000309521953F4F4F4F5F4F089590958095C1
:10140000709561957F4F8F4F9F4F08950E94190AE5
:10141000A59F900DB49F900DA49F800D911D112448
:101420000895B7FF0C94060A0E94060A821B930BCC
:101430000895A29FB001B39FC001A39F700D811DAD
:101440001124911DB29F700D811D1124911D0895CD
:04145000F894FFCF3E
:101454000208208000C0C101C30302C2C60607C738
:1014640005C5C404CC0C0DCD0FCFCE0E0ACACB0BD0
:10147400C90908C8D81819D91BDBDA1A1EDEDF1F00
:10148400DD1D1CDC14D4D515D71716D6D21213D3F0
:1014940011D1D010F03031F133F3F23236F6F737A0
:1014A400F53534F43CFCFD3DFF3F3EFEFA3A3BFB90
:1014B40039F9F83828E8E929EB2B2AEAEE2E2FEF40
:1014C4002DEDEC2CE42425E527E7E62622E2E323B0
:1014D400E12120E0A06061A163A3A26266A6A767E0
:1014E400A56564A46CACAD6DAF6F6EAEAA6A6BAB50
:1014F40069A9A86878B8B979BB7B7ABABE7E7FBF80
:101504007DBDBC7CB47475B577B7B67672B2B3736F
:10151400B17170B05090915193535292965657971F
:10152400559594549C5C5D9D5F9F9E5E5A9A9B5B0F
:1015340099595898884849894B8B8A4A4E8E8F4FBF
:101544008D4D4C8C4484854587474686824243832F
:101554004181804000C1814001C0804101C080417F
:1015640000C1814001C0804100C1814000C181406F
:1015740001C0804101C0804100C1814000C181405F
:1015840001C0804100C1814001C0804101C080414F
:1015940000C1814001C0804100C1814000C181403F
:1015A40001C0804100C1814001C0804101C080412F
:1015B40000C1814000C1814001C0804101C080411F
:1015C40000C1814001C0804100C1814000C181400F
:1015D40001C0804101C0804100C1814000C18140FF
:1015E40001C0804100C1814001C0804101C08041EF
:1015F40000C1814000C1814001C0804101C08041DF
:1016040000C1814001C0804100C1814000C18140CE
:1016140001C0804100C1814001C0804101C08041BE
:1016240000C1814001C0804100C1814000C18140AE
:1016340001C0804101C0804100C1814000C181409E
:1016440001C0804100C1814001C0804101C080418E
:0416540000C1814010
:00000001FF
