:100000000C9434000C9488060C9451000C9451000C
:100010000C9451000C9451000C9451000C941D0749
:100020000C9451000C9451000C9451000C94F60760
:100030000C9451000C9451000C94C8070C9451007E
:100040000C9451000C9451000C9454090C945100E0
:100050000C9451000C9451000C9451000C945100DC
:100060000C948F080C94510011241FBECFEFD8E0E0
:10007000DEBFCDBF13E0A0E0B1E0ECE4F4E102C0EC
:1000800005900D92A430B107D9F723E0A4E0B3E0C6
:1000900001C01D92A937B207E1F70E94C3030C9477
:1000A000240A0C94000020E335E740912803509186
:1000B0002903CA018270992741FF0CC0809128034F
:1000C000909129038D7F909329038093280381E0E9
:1000D00090E0089545E04A95F1F70000215031097C
:1000E00021F70895CF92DF92EF92FF920F931F9323
:1000F000CF93DF9300D000D0CDB7DEB789E1EFE03A
:10010000F3E0DF011D928A95E9F787E0E8E0F3E08C
:10011000DF011D928A95E9F78CEE80930F0380939F
:10012000080380E991E00E940D08811103C080E07E
:1001300090E03BC005E010E08CEEF82E94EFE92E45
:1001400027EBD22E30EFC32EF98242E060EDCE01D4
:1001500001960E9474080E945300892B11F18A8134
:100160008835C9F449E168E88FE093E00E9474089B
:100170000E945300892B79F0EA82DB82CC8264E012
:10018000CE0101960E9464080E945300892B19F049
:1001900081E090E00AC08FE39CE90197F1F700C08D
:1001A00000000150110981F6C2CF0F900F900F90FF
:1001B0000F90DF91CF911F910F91FF90EF90DF9003
:1001C000CF90089547E067EF88E093E00C947408BF
:1001D0008F929F92AF92BF92CF92DF92EF92FF9257
:1001E000E8E0F3E084819581982789279827A0E0AB
:1001F000B0E024E0880F991FAA1FBB1F2A95D1F7F2
:10020000268122952F70822BEFE0F3E0418152810D
:1002100060E070E06C017D0134E0F594E794D794E0
:10022000C7943A95D1F7C41AD50AE60AF70A23E02B
:10023000B595A795979587952A95D1F7440F551FA2
:10024000661F771F4C015D01841A950AA60AB70A3A
:10025000A5019401A381B4810E940D0A4B015C01A8
:100260004BE0B594A794979487944A95D1F7A7014A
:100270009601C701B6010E9489099B01AC016CE09F
:1002800055954795379527956A95D1F7A581B681FC
:100290000E940D0ADC01CB017EE0B595A7959795EC
:1002A00087957A95D1F7A5019401280F391F4A1F28
:1002B0005B1F209304033093050340930603509380
:1002C0000703A5E0B0E00E94020ADC01CB018058E0
:1002D0009F4FAF4FBF4F692F7A2F8B2F992787FDE5
:1002E0009A952AE030E040E050E00E94E309C9011D
:1002F000FF90EF90DF90CF90BF90AF909F908F9046
:1003000008954F925F926F927F928F929F92AF92D9
:10031000BF92CF92DF92EF92FF92CF93DF9300D004
:1003200000D0CDB7DEB78091040390910503A09172
:100330000603B0910703B595A795979587959C01FE
:10034000AD013A5F4109510929833A834B835C83AC
:10035000CA01B90132E095958795779567953A95E9
:10036000D1F79B01AC010E9489094B015C01A0916E
:100370001A03B0911B039B01AC016DE055954795A5
:10038000379527956A95D1F70E940D0A6B017C017C
:1003900073E0F594E794D794C7947A95D1F7A09138
:1003A0001803B091190329813A814B815C810E9425
:1003B0000D0ADC01CB01B595A795979587958C0D16
:1003C0009D1DAE1DBF1DF2E1B595A795979587952B
:1003D000FA95D1F79C01AD0130584F4F5F4FA09176
:1003E0001603B09117030E94020A2B013C01AFE0F3
:1003F0007594679457944794AA95D1F74114510482
:100400006104710409F4DDC0C0900903D0900A03AF
:10041000DC24CD24DC24E12CF12C54E0CC0CDD1CBC
:10042000EE1CFF1C5A95D1F7A50194016BE0559580
:100430004795379527956A95D1F7A0912003B091FC
:1004400021030E940D0A4B015C01A0911E03B09193
:100450001F0329813A814B815C810E940D0ADC01D6
:10046000CB01880F991FAA1FBB1F880E991EAA1EB9
:10047000BB1ED501C401E2E0B595A7959795879578
:10048000EA95D1F780901C0390901D03092C000C75
:10049000AA08BB08540199248824880E991EAA1E14
:1004A000BB1EACE0B594A79497948794AA95D1F716
:1004B00080910B0382958F70A7019601282BDA019A
:1004C000C901A5019401280F391F4A1F5B1FABEC1E
:1004D000B3EF0E94100A805B9C4397FD0BC0660F30
:1004E000771F881F991FA30192010E94C10969010A
:1004F0007A010AC0A30192010E94C10969017A012F
:10050000CC0CDD1CEE1CFF1CC701B60123E0969548
:100510008795779567952A95D1F79B01AC010E9445
:1005200089099B01AC016DE0569547953795279554
:100530006A95D1F7A0912603B09127030E940D0A76
:100540004B015C017CE0B594A794979487947A95CD
:10055000D1F7A7019601E2E0569547953795279583
:10056000EA95D1F7A0912403B09125030E940D0ACA
:10057000DC01CB01FDE0B595A79597958795FA9598
:10058000D1F7B501A401480F591F6A1F7B1F809145
:10059000220390912303092E000CAA0BBB0B840F9E
:1005A000951FA61FB71F24E0B595A795979587952A
:1005B0002A95D1F7BC01CD016C0D7D1D8E1D9F1DAF
:1005C00003C060E070E0CB012AE030E040E050E0A2
:1005D0000E94C109C9010F900F900F900F90DF91F9
:1005E000CF91FF90EF90DF90CF90BF90AF909F9012
:1005F0008F907F906F905F904F900895613021E0D1
:100600007207A8F4DC018FEF4FEF9D91242F29276B
:1006100030E0F901EC5FFD4F40814827F901EC5FC4
:10062000FE4F8081615089F790E0942B089580E01F
:1006300090E008950F931F93CF93DF938A01019663
:10064000EC01CC0FDD1FCE010E948C04B801CE015D
:100650000196DF91CF911F910F910C948C04CF9351
:10066000DF930E94A904C0E0D0E0CE010E949F0465
:10067000882321F0CE010E94FF0503C0CE010E9415
:10068000EA052196C430D10581F7DF91CF91089515
:100690000E94E800BC0180E090E00E948C040E946F
:1006A0008101BC0181E090E00C948C04EF92FF92F8
:1006B0000F931F93CF93DF937B018C01C0E0D0E0B9
:1006C000F801808191819701281B390BC9018D3276
:1006D000914050F04FEF5FEF66E575EFCE010E945D
:1006E0001A03F801F182E08221960E5F1F4FC3309A
:1006F000D10531F7DF91CF911F910F91FF90EF90CE
:100700000895CF92DF92EF92FF920F931F93CF93B2
:10071000DF9300D000D000D0CDB7DEB76C017B01F5
:10072000CE0101960E943806892BF1F00E818FEFE1
:10073000800F8330C8F4002E000C110B01501109FA
:100740004C81042E000C550B6A817B81C8010E94EC
:100750001A036D81C8010E949704F801EE0FFF1F74
:10076000EC0DFD1DF182E08226960FB6F894DEBFF7
:100770000FBECDBFDF91CF911F910F91FF90EF90F2
:10078000DF90CF900895CF93DF9300D000D000D0BA
:10079000CDB7DEB798E288E10FB6F894A8958093BC
:1007A00060000FBE909360000E94DF050E947104FC
:1007B0000E947F0678940E9472006C0166E575EFD6
:1007C00080E090E00E948C0460E070E081E090E0C6
:1007D0000E948C04CE0101967C0100E010E0B82E4E
:1007E000AF2C4FEF5FEF66E575EFC8010E941A036B
:1007F000F701119211927F010F5F1F4F0330110516
:1008000081F780E090E00E94EA0581E090E00E949C
:10081000EA0582E090E00E94EA0583E090E00E9411
:10082000EA050E948A0700E010E08EE1E82EF12C34
:10083000809128039091290380FF0BC080912803A9
:10084000909129038E7F90932903809328030E941F
:100850002F03809128039091290382FF1BC0809170
:100860002803909129038B7F909329038093280379
:100870000F5F1F4FB8018B2D9A2D0E945603C11494
:10088000D10441F0C801B7010E949909892B11F4E4
:100890000E94E200809128039091290381FF0BC000
:1008A00080912803909129038D7F90932903809351
:1008B00028030E944803809128039091290383FF15
:1008C0000EC08091280390912903877F909329037C
:1008D00080932803B8018B2D9A2D0E948103A8953F
:1008E000A7CF80E1E1E3F3E0DF011D928A95E9F70C
:1008F00084E0EDE2F3E0DF011D928A95E9F783E001
:10090000EAE2F3E0DF011D928A95E9F70E947E0793
:100910000E942E090C943909883091053CF4880F07
:10092000991FFC01EF5CFC4F718360830895883050
:10093000910524F4FC01E65DFC4F6083089584304A
:1009400091052CF4FC01E35DFC4F8081089580E06B
:100950000895EF92FF920F931F93CF93DF93CDB73C
:10096000DEB768970FB6F894DEBF0FBECDBF10910B
:100970005903113009F0FBC0E0905703F090580381
:1009800060915703709158036250710989E593E0B3
:100990000E94FE02F701E95AFC4F20813181322783
:1009A000232732278217930709F0CCC0198320919F
:1009B0005A032A83A0915B03B0915C039A2F8B2F7B
:1009C00060915D0370915E03562F472F243009F428
:1009D00058C028F4213051F0223061F1E5C02530B3
:1009E00009F476C02F3009F488C0DEC041155105E6
:1009F00009F4DEC0BC01640F751F6530710508F095
:100A0000D7C02B83FC01E35DFC4F20E030E090E099
:100A100061E070E08191882339F0DB01022E01C092
:100A2000AA0F0A94EAF79A2B2F5F3F4F2417350736
:100A300089F723C04115510509F4BAC0BC01640F00
:100A4000751F6430710508F0B3C01B83FC01E65DBF
:100A5000FC4F20E030E090E061E070E0819188237D
:100A600039F0DB01022E01C0AA0F0A94EAF79A2B93
:100A70002F5F3F4F4217530789F79C8304E010E034
:100A800063C04115510509F493C0BC01640F751F83
:100A90006930710508F08CC0242F220F2B83880F3A
:100AA000991FFC01EF5CFC4FDE01149680E090E0A2
:100AB000219131913227232732272D933D9301969F
:100AC00084179507A9F70B8110E00D5F1F4F3CC0FD
:100AD0008530910508F06CC041153FEF530729F4AC
:100AE000FC01E35DFC4F108358C0452B09F05EC04C
:100AF000FC01E35DFC4F108250C04115510509F423
:100B000057C0FC01E40FF51F359708F051C0209144
:100B10006003FC01E35DFC4F80E090E030E011E019
:100B20007901082E02C0F594E7940A94E2F7E0FEFA
:100B300002C0108301C01082019631968417950778
:100B400079F72BC000E010E0B801CE0101960E94B9
:100B5000FE02E1E0F0E0EC0FFD1FE00FF11F98272F
:100B600089279827918380830E5F1F4F02C000E082
:100B700010E00E943909B801CE0101960E94440993
:100B800068960FB6F894DEBF0FBECDBFDF91CF9150
:100B90001F910F91FF90EF900895BC83AB837E83EC
:100BA0006D8306E010E0D0CF81E003C083E001C098
:100BB00082E020682A838B8303E010E0C5CF80B7F2
:100BC000806880BF10927A008FE088B987B18F600B
:100BD00087B908958130910561F01CF4892B39F0B3
:100BE00008958230910539F0039739F00895409ABD
:100BF0000895419A0895429A0895439A089581303C
:100C0000910561F01CF4892B39F00895823091052B
:100C100039F0039739F00895409808954198089560
:100C20004298089543980895E09AE89A0895E091CB
:100C30004103F0914203F7FD379693E0F595E79570
:100C40009A95E1F7EB5BFC4F9081990F908390812F
:100C5000892B808308950E94C00783E090E09093E1
:100C6000440380934303109242031092410308957A
:100C7000CF93DF93FC019091450380914603890F48
:100C800090914703890F2091480390914903820F67
:100C900098132DC080914503808380914603881F5F
:100CA0008827881F8483809146038295837085837B
:100CB000209146032F7030E0322F22278091470386
:100CC000282B2054314045E0429FC001439F900DA6
:100CD000112469E070E00E94AD09645F7140728385
:100CE0006183809148038383C1E0D0E002C0C0E00B
:100CF000D0E00E941406CE01DF91CF9108950E94AA
:100D000099070E942B0681E0809369000C941406D9
:100D10001F920F920FB60F9211242F933F934F9370
:100D20005F936F937F938F939F93AF93BF93EF9353
:100D3000FF934A9B4FC080914303909144038430BA
:100D4000910591F18630910591F00397C1F588E501
:100D500092E00E94A4078091410390914203019682
:100D6000909342038093410381E090E023C08091FF
:100D70004103909142030196909342038093410373
:100D80008091410390914203889771F480912803E8
:100D900090912903886090932903809328030E94EF
:100DA0002B06E898E09A38C080E991E00E94A407F9
:100DB00085E090E090934403809343032DC088E541
:100DC00092E00E94A40781E090E090934203809318
:100DD0004103F0CF80914303909144038330910508
:100DE000D9F05CF40297B1F488E592E00E94A40780
:100DF00010924403109243030FC08530910529F0EF
:100E0000069741F481E090E002C080E090E00E940B
:100E1000170602C00E942B06FF91EF91BF91AF9180
:100E20009F918F917F916F915F914F913F912F9102
:100E30000F900FBE0F901F9018951F920F920FB634
:100E40000F9211242F933F934F935F936F937F9350
:100E50008F939F93AF93BF93EF93FF930E94C0072D
:100E600080914303909144038130910531F08530A6
:100E7000910531F1892B79F50BC082E090E09093D8
:100E800044038093430380E991E00E94A40725C0B6
:100E900080E991E00E94A407809141039091420370
:100EA00004971CF483E090E011C084E090E09093FC
:100EB00044038093430310924203109241030DC0F8
:100EC00080E991E00E94A40786E090E090934403BB
:100ED0008093430302C00E942B06FF91EF91BF91C4
:100EE000AF919F918F917F916F915F914F913F91C2
:100EF0002F910F900FBE0F901F90189582E084BD28
:100F00009CE697BD80936E00089515BC16BC84E0E6
:100F100085BD089588E09DE39093890080938800C3
:100F200082E080936F00109280008DE080938100BA
:100F30000895E0E7F0E080818D7F808382E08093F8
:100F4000B0001092B1000895209170002D7F209381
:100F500070001092B10097FD079623E09595879554
:100F60002A95E1F78093B3001092B200B99A80916C
:100F7000700082608093700085E08093B1000895D6
:100F8000E0E7F0E080818D7F80831092B1000895CA
:100F90001F920F920FB60F9211242F933F934F93EE
:100FA0005F936F937F938F939F93AF93BF93EF93D1
:100FB000FF9315BC0E944109809128039091290359
:100FC00081609093290380932803FF91EF91BF9153
:100FD000AF919F918F917F916F915F914F913F91D1
:100FE0002F910F900FBE0F901F9018951F920F9288
:100FF0000FB60F9211248F939F93809128039091A5
:101000002903846090932903809328039F918F91F3
:101010000F900FBE0F901F901895AF92BF92CF9276
:10102000DF92EF92FF921F93CF93DF9300D000D017
:10103000CDB7DEB7BC018091000190910101A09174
:101040000201B091030189839A83AB83BC8380E85A
:101050009EE30E9499096B01E12CF12C80E1C81AF2
:10106000D108E108F108FE0131965F0110E0F501B9
:1010700021915F0130E040E050E0C701B6010E94DD
:10108000C109C90101978F3F910560F42093B80011
:101090001093B9008FEF8093BB0084E08093BC0075
:1010A00081E004C01F5F143011F780E00F900F90B3
:1010B0000F900F90DF91CF911F91FF90EF90DF90F5
:1010C000CF90BF90AF900895109253039093560322
:1010D00080935503FC0120812E7F2083609354036D
:1010E00085EA8093BC00089590934F0380934E034C
:1010F0004093520321E020935303FC0180818E7FB3
:10110000E0E5F3E080836183F0935603E0935503B9
:1011100082E08093540385EA8093BC0008951F9277
:101120000F920FB60F9211242F933F938F939F939B
:10113000EF93FF938091B9008C7F883229F140F4BE
:10114000803101F1883101F1883009F079C01AC08D
:10115000803409F458C020F4883309F46FC070C09B
:10116000803509F442C0883509F06AC080914D038A
:10117000E0915503F0915603E80FF11D8091BB00FB
:1011800080834FC010924D0380914D039091540382
:10119000891790F4E0915503F0915603E80FF11D83
:1011A00080818093BB0085E88093BC0080914D03D3
:1011B0008F5F80934D0347C080915303882389F14B
:1011C00010925303E0914E03F0914F03F0935603B6
:1011D000E0935503808181608083809152038093E6
:1011E000540381E080934D0329C080914D03E09129
:1011F0005503F0915603E80FF11D9091BB009083C9
:101200008F5F80934D038091540320914D0330E014
:1012100090E001972817390714F485EC12C085E88F
:1012200010C084E98093BC00809128039091290329
:101230008260909329038093280305C085EA01C04A
:1012400084E08093BC00FF91EF919F918F913F913B
:101250002F910F900FBE0F901F9018951092C00005
:1012600086E08093C2001092C50089E18093C4009B
:101270000895109258031092570388E98093C10093
:1012800008951092C1000895FC019F01281B390B9D
:101290002617370744F421912093C6002091C000FF
:1012A00025FFFCCFF2CF08951F920F920FB60F9239
:1012B00011242F933F934F935F936F937F938F935B
:1012C0009F93AF93BF93EF93FF93809157039091B8
:1012D00058039C012F5F3F4F3093580320935703CF
:1012E0002091C600FC01E75AFC4F20830E9485072D
:1012F000FF91EF91BF91AF919F918F917F916F91EE
:101300005F914F913F912F910F900FBE0F901F90C3
:101310001895DB018F939F930E94020ABF91AF91B2
:10132000A29F800D911DA39F900DB29F900D11243F
:101330000895AA1BBB1B51E107C0AA1FBB1FA6171C
:10134000B70710F0A61BB70B881F991F5A95A9F76E
:1013500080959095BC01CD01089597FB072E16F45A
:10136000009407D077FD09D00E94990907FC05D0A9
:101370003EF4909581959F4F0895709561957F4FAC
:101380000895A1E21A2EAA1BBB1BFD010DC0AA1FC6
:10139000BB1FEE1FFF1FA217B307E407F50720F0DE
:1013A000A21BB30BE40BF50B661F771F881F991F59
:1013B0001A9469F760957095809590959B01AC01A2
:1013C000BD01CF010895052E97FB1EF400940E94E5
:1013D000FA0957FD07D00E94C10907FC03D04EF45B
:1013E0000C94FA0950954095309521953F4F4F4FF9
:1013F0005F4F089590958095709561957F4F8F4FC1
:101400009F4F08950E94150AA59F900DB49F900DBF
:10141000A49F800D911D11240895B7FF0C94020A1A
:101420000E94020A821B930B0895A29FB001B39FF2
:10143000C001A39F700D811D1124911DB29F700DDD
:0C144000811D1124911D0895F894FFCF28
:10144C000208208000C0C101C30302C2C60607C740
:10145C0005C5C404CC0C0DCD0FCFCE0E0ACACB0BD8
:10146C00C90908C8D81819D91BDBDA1A1EDEDF1F08
:10147C00DD1D1CDC14D4D515D71716D6D21213D3F8
:10148C0011D1D010F03031F133F3F23236F6F737A8
:10149C00F53534F43CFCFD3DFF3F3EFEFA3A3BFB98
:1014AC0039F9F83828E8E929EB2B2AEAEE2E2FEF48
:1014BC002DEDEC2CE42425E527E7E62622E2E323B8
:1014CC00E12120E0A06061A163A3A26266A6A767E8
:1014DC00A56564A46CACAD6DAF6F6EAEAA6A6BAB58
:1014EC0069A9A86878B8B979BB7B7ABABE7E7FBF88
:1014FC007DBDBC7CB47475B577B7B67672B2B37378
:10150C00B17170B050909151935352929656579727
:10151C00559594549C5C5D9D5F9F9E5E5A9A9B5B17
:10152C0099595898884849894B8B8A4A4E8E8F4FC7
:10153C008D4D4C8C44848545874746868242438337
:10154C004181804000C1814001C0804101C0804187
:10155C0000C1814001C0804100C1814000C1814077
:10156C0001C0804101C0804100C1814000C1814067
:10157C0001C0804100C1814001C0804101C0804157
:10158C0000C1814001C0804100C1814000C1814047
:10159C0001C0804100C1814001C0804101C0804137
:1015AC0000C1814000C1814001C0804101C0804127
:1015BC0000C1814001C0804100C1814000C1814017
:1015CC0001C0804101C0804100C1814000C1814007
:1015DC0001C0804100C1814001C0804101C08041F7
:1015EC0000C1814000C1814001C0804101C08041E7
:1015FC0000C1814001C0804100C1814000C18140D7
:10160C0001C0804100C1814001C0804101C08041C6
:10161C0000C1814001C0804100C1814000C18140B6
:10162C0001C0804101C0804100C1814000C18140A6
:10163C0001C0804100C1814001C0804101C0804196
:04164C0000C1814018
:00000001FF
