:100000000C9434000C9412040C9451000C94510084
:100010000C9451000C9451000C9451000C94B104B8
:100020000C9451000C9451000C9451000C94DA047F
:100030000C9451000C9451000C9488040C945100C1
:100040000C9451000C9451000C9454060C945100E3
:100050000C9451000C9451000C9451000C945100DC
:100060000C9488050C94510011241FBECFEFD8E0EA
:10007000DEBFCDBF13E0A0E0B1E0E2E1F5E102C0F8
:1000800005900D92A430B107D9F723E0A4E0B3E0C6
:1000900001C01D92A538B207E1F70E9489060C94B1
:1000A000870A0C94000080913E0390913F03826088
:1000B00090933F0380933E03089520E335E74091FA
:1000C0003E0350913F03CA018270992741FF0CC043
:1000D00080913E0390913F038D7F90933F038093E7
:1000E0003E0381E090E0089545E04A95F1F7000075
:1000F0002150310921F70895CF92DF92EF92FF92BC
:100100000F931F93CF93DF9300D000D0CDB7DEB70E
:1001100089E1EFE0F3E0DF011D928A95E9F787E0DE
:10012000E8E0F3E0DF011D928A95E9F78CEE809319
:100130000F038093080360E971E083E590E00E947B
:100140000305811103C080E090E03BC005E010E0B2
:100150008CEEF82E94EFE92E27EBD22E30EFC32E43
:10016000F98242E060EDCE0101960E946D050E9489
:100170005D00892B11F18A818835C9F449E168E86D
:100180008FE093E00E946D050E945D00892B79F05D
:10019000EA82DB82CC8264E0CE0101960E945D059A
:1001A0000E945D00892B19F081E090E00AC08FE386
:1001B0009CE90197F1F700C000000150110981F698
:1001C000C2CF0F900F900F900F90DF91CF911F91A2
:1001D0000F91FF90EF90DF90CF90089547E067EF89
:1001E00088E093E00C946D058F929F92AF92BF923E
:1001F000CF92DF92EF92FF92E8E0F3E08481958165
:10020000982789279827A0E0B0E024E0880F991F5D
:10021000AA1FBB1F2A95D1F7268122952F70822B0A
:10022000EFE0F3E04181528160E070E06C017D011C
:1002300034E0F594E794D794C7943A95D1F7C41A6B
:10024000D50AE60AF70A23E0B595A795979587950D
:100250002A95D1F7440F551F661F771F4C015D018A
:10026000841A950AA60AB70AA5019401A381B4814C
:100270000E94700A4B015C014BE0B594A7949794DF
:1002800087944A95D1F7A7019601C701B6010E944C
:10029000EC099B01AC016CE0559547953795279586
:1002A0006A95D1F7A581B6810E94700ADC01CB0165
:1002B0007EE0B595A795979587957A95D1F7A50195
:1002C0009401280F391F4A1F5B1F209304033093AA
:1002D00005034093060350930703A5E0B0E00E9496
:1002E000650ADC01CB0180589F4FAF4FBF4F692F8C
:1002F0007A2F8B2F992787FD9A952AE030E040E0EE
:1003000050E00E94460AC901FF90EF90DF90CF9025
:10031000BF90AF909F908F9008954F925F926F9291
:100320007F928F929F92AF92BF92CF92DF92EF9285
:10033000FF92CF93DF9300D000D0CDB7DEB780918E
:10034000040390910503A0910603B0910703B595AE
:10035000A795979587959C01AD013A5F4109510991
:1003600029833A834B835C83CA01B90132E09595B6
:100370008795779567953A95D1F79B01AC010E94D7
:10038000EC094B015C01A0911A03B0911B039B0186
:10039000AC016DE055954795379527956A95D1F74E
:1003A0000E94700A6B017C0173E0F594E794D79486
:1003B000C7947A95D1F7A0911803B09119032981B8
:1003C0003A814B815C810E94700ADC01CB01B595BA
:1003D000A795979587958C0D9D1DAE1DBF1DF2E1CC
:1003E000B595A79597958795FA95D1F79C01AD019D
:1003F00030584F4F5F4FA0911603B09117030E94E2
:10040000650A2B013C01AFE07594679457944794BB
:10041000AA95D1F7411451046104710409F4DDC0B7
:10042000C0900903D0900A03DC24CD24DC24E12C05
:10043000F12C54E0CC0CDD1CEE1CFF1C5A95D1F7BE
:10044000A50194016BE055954795379527956A95D9
:10045000D1F7A0912003B09121030E94700A4B01B3
:100460005C01A0911E03B0911F0329813A814B8149
:100470005C810E94700ADC01CB01880F991FAA1FC2
:10048000BB1F880E991EAA1EBB1ED501C401E2E047
:10049000B595A79597958795EA95D1F780901C0318
:1004A00090901D03092C000CAA08BB085401992444
:1004B0008824880E991EAA1EBB1EACE0B594A79492
:1004C00097948794AA95D1F780910B0382958F70AA
:1004D000A7019601282BDA01C901A5019401280F73
:1004E000391F4A1F5B1FABECB3EF0E94730A805B9E
:1004F0009C4397FD0BC0660F771F881F991FA301B0
:1005000092010E94240A69017A010AC0A3019201A2
:100510000E94240A69017A01CC0CDD1CEE1CFF1C30
:10052000C701B60123E096958795779567952A953B
:10053000D1F79B01AC010E94EC099B01AC016DE07D
:1005400056954795379527956A95D1F7A09126033B
:10055000B09127030E94700A4B015C017CE0B594C6
:10056000A794979487947A95D1F7A7019601E2E032
:100570005695479537952795EA95D1F7A09124038D
:10058000B09125030E94700ADC01CB01FDE0B59516
:10059000A79597958795FA95D1F7B501A401480FCE
:1005A000591F6A1F7B1F8091220390912303092EFC
:1005B000000CAA0BBB0B840F951FA61FB71F24E0CE
:1005C000B595A795979587952A95D1F7BC01CD014B
:1005D0006C0D7D1D8E1D9F1D03C060E070E0CB0182
:1005E0002AE030E040E050E00E94240AC9010F9068
:1005F0000F900F900F90DF91CF91FF90EF90DF90D1
:10060000CF90BF90AF909F908F907F906F905F90B2
:100610004F900895613021E07207A8F4DC018FEF5C
:100620004FEF9D91242F292730E0F901EC5FFD4F1A
:1006300040814827F901EC5FFE4F8081615089F7C6
:1006400090E0942B089580E090E008950F931F931D
:10065000CF93DF938A010196EC01CC0FDD1FCE0111
:100660000E947307B801CE010196DF91CF911F91CF
:100670000F910C947307CF93DF930E949007C0E013
:10068000D0E0CE010E948607882321F0CE010E948F
:10069000EF0303C0CE010E94DA032196C430D105D6
:1006A00081F7DF91CF9108950E94F400BC0180E0B2
:1006B00090E00E9473070E948D01BC0181E090E0F0
:1006C0000C947307EF92FF920F931F93CF93DF93D6
:1006D0007B018C01C0E0D0E0F8018081918197011D
:1006E000281B390BC9018D32914050F04FEF5FEF5D
:1006F00066E575EFCE010E942603F801F182E082E3
:1007000021960E5F1F4FC330D10531F7DF91CF9196
:100710001F910F91FF90EF900895CF92DF92EF928B
:10072000FF920F931F93CF93DF9300D000D000D0A0
:10073000CDB7DEB76C017B01CE0101960E94A50901
:10074000892BF1F00E818FEF800F8330C8F4002EDB
:10075000000C110B015011094C81042E000C550B9B
:100760006A817B81C8010E9426036D81C8010E94B5
:100770007E07F801EE0FFF1FEC0DFD1DF182E082F8
:1007800026960FB6F894DEBF0FBECDBFDF91CF9196
:100790001F910F91FF90EF90DF90CF90089580B759
:1007A000806880BF10927A008FE088B987B18F602F
:1007B00087B908958130910561F01CF4892B39F0D7
:1007C00008958230910539F0039739F00895409AE1
:1007D0000895419A0895429A0895439A0895813060
:1007E000910561F01CF4892B39F008958230910550
:1007F00039F0039739F00895409808954198089585
:10080000429808954398089590932903809328036C
:1008100081E0809369000895E09AE89A0895E89845
:10082000E09A08951F920F920FB60F9211242F9302
:100830003F934F935F936F937F938F939F93AF9368
:10084000BF93EF93FF93E0912803F0912903309732
:1008500031F04A9B02C081E001C080E00995FF9120
:10086000EF91BF91AF919F918F917F916F915F9128
:100870004F913F912F910F900FBE0F901F901895A1
:1008800015BC2CE627BD90932F0380932E0382E0A6
:1008900084BD80936E00089515BC16BCA99A84E0AF
:1008A00085BD089515BC08951092B10090932B0357
:1008B00080932A0382E08093B000809370000895B3
:1008C000E1EBF0E010821092B200B99A23E0969525
:1008D00087952A95E1F781508093B30085E0808366
:1008E00008951092B10008951092810090932D0305
:1008F00080932C0388E09DE3909389008093880087
:1009000082E080936F0008958DE0809381000895C8
:100910001F920F920FB60F9211242F933F934F9374
:100920005F936F937F938F939F93AF93BF93EF9357
:10093000FF93E0912E03F0912F03309709F0099572
:10094000FF91EF91BF91AF919F918F917F916F91A7
:100950005F914F913F912F910F900FBE0F901F907D
:1009600018951F920F920FB60F9211242F933F9359
:100970004F935F936F937F938F939F93AF93BF93A7
:10098000EF93FF93E0912A03F0912B03309709F046
:100990000995FF91EF91BF91AF919F918F917F91B9
:1009A0006F915F914F913F912F910F900FBE0F90DC
:1009B0001F9018951F920F920FB60F9211242F932C
:1009C0003F934F935F936F937F938F939F93AF93D7
:1009D000BF93EF93FF93E0912C03F0912D03309799
:1009E00009F00995FF91EF91BF91AF919F918F9180
:1009F0007F916F915F914F913F912F910F900FBE1B
:100A00000F901F901895AF92BF92CF92DF92EF9206
:100A1000FF921F93CF93DF9300D000D0CDB7DEB706
:100A200090933203809331038091000190910101F2
:100A3000A0910201B091030189839A83AB83BC83A7
:100A400080E89EE30E94FC096B01E12CF12C80E11F
:100A5000C81AD108E108F108FE0131965F0110E0E3
:100A6000F50121915F0130E040E050E0C701B6019F
:100A70000E94240AC90101978F3F910560F42093D9
:100A8000B8001093B9008FEF8093BB0084E080938F
:100A9000BC0081E004C01F5F143011F780E00F90AC
:100AA0000F900F900F90DF91CF911F91FF90EF90DB
:100AB000DF90CF90BF90AF9008951092380390933D
:100AC0003B0380933A03FC0120812E7F20836093B7
:100AD000390385EA8093BC00089590933403809392
:100AE00033034093370321E020933803FC018081D6
:100AF0008E7FE5E3F3E080836183F0933B03E09333
:100B00003A0382E08093390385EA8093BC0008951C
:100B10001F920F920FB60F9211242F933F934F9372
:100B20005F936F937F938F939F93AF93BF93EF9355
:100B3000FF938091B9008C7F883229F140F4803195
:100B400001F1883101F1883009F077C01AC0803492
:100B500009F458C020F4883309F46DC06EC08035A4
:100B600009F442C0883509F068C080913003E091F3
:100B70003A03F0913B03E80FF11D8091BB008083A5
:100B80004FC0109230038091300390913903891740
:100B900090F4E0913A03F0913B03E80FF11D80815E
:100BA0008093BB0085E88093BC00809130038F5F09
:100BB0008093300345C080913803882389F11092D7
:100BC0003803E0913303F0913403F0933B03E09357
:100BD0003A03808181608083809137038093390359
:100BE00081E08093300327C080913003E0913A0385
:100BF000F0913B03E80FF11D9091BB0090838F5F54
:100C000080933003809139032091300330E090E0ED
:100C100001972817390714F485EC10C085E80EC039
:100C200084E98093BC00E0913103F0913203309766
:100C300039F0099505C085EA01C084E08093BC00C5
:100C4000FF91EF91BF91AF919F918F917F916F91A4
:100C50005F914F913F912F910F900FBE0F901F907A
:100C600018951092C00026E02093C2001092C50093
:100C700029E12093C40090933D0380933C030895A1
:100C800088E98093C1000895FC019F01281B390B5E
:100C90002617370744F421912093C6002091C00005
:100CA00025FFFCCFF2CF08951F920F920FB60F923F
:100CB00011242F933F934F935F936F937F938F9361
:100CC0009F93AF93BF93EF93FF93E0913C03F09119
:100CD0003D03309719F08091C6000995FF91EF917F
:100CE000BF91AF919F918F917F916F915F914F9144
:100CF0003F912F910F900FBE0F901F9018958091EC
:100D00003E0390913F03846090933F0380933E03A2
:100D10000895CF93DF9300D000D000D0CDB7DEB7D9
:100D200098E288E10FB6F894A895809360000FBE12
:100D3000909360000E94CF030E945B070E94990974
:100D40008FE796E00E94740478940E947C006C0106
:100D500066E575EF80E090E00E94730760E070E068
:100D600081E090E00E947307CE0101967C0100E0D3
:100D700010E0B82EAF2C4FEF5FEF66E575EFC801BE
:100D80000E942603F701119211927F010F5F1F4FFE
:100D90000330110581F780E090E00E94DA0381E0E2
:100DA00090E00E94DA0382E090E00E94DA0383E0A0
:100DB00090E00E94DA030E94840400E010E08EE1DB
:100DC000E82EF12C80913E0390913F0380FF0BC0F1
:100DD00080913E0390913F038E7F90933F038093D9
:100DE0003E030E943B0380913E0390913F0382FFAC
:100DF0001BC080913E0390913F038B7F90933F03F4
:100E000080933E030F5F1F4FB8018B2D9A2D0E94D8
:100E10006203C114D10441F0C801B7010E94FC096A
:100E2000892B11F40E94EE0080913E0390913F03C4
:100E300081FF0BC080913E0390913F038D7F909383
:100E40003F0380933E030E94540380913E039091A0
:100E50003F0383FF0EC080913E0390913F03877F45
:100E600090933F0380933E03B8018B2D9A2D0E94EF
:100E70008D03A895A7CF2091770330917803203276
:100E800031055CF4A9014F5F5F4F509378034093A5
:100E90007703F901E95AFC4F80830C944C040E94BB
:100EA000520480913E0390913F03816090933F03F1
:100EB00080933E03089582E2E7E5F3E0DF011D92AF
:100EC0008A95E9F787E1E0E4F3E0DF011D928A9576
:100ED000E9F78FE497E00E9440048BE397E00E94DB
:100EE00031060C944006883091053CF4880F991F18
:100EF000FC01E05CFC4F71836083089588309105AC
:100F000024F4FC01E05CFC4F648B0895843091056F
:100F10002CF4FC01E05CFC4F8089089580E008958A
:100F2000EF92FF920F931F93CF93DF93CDB7DEB76E
:100F300068970FB6F894DEBF0FBECDBFF090570391
:100F400021E0F21619F000E010E002C100917703F1
:100F500010917803B8016250710987E593E00E940F
:100F60000A03F801EB5AFC4F2081318132272327F5
:100F700032278217930739F7F982209158032A8381
:100F8000A0915903B0915A039A2F8B2F60915B0364
:100F900070915C03562F472F243009F458C028F471
:100FA000213051F0223061F1BAC0253009F476C009
:100FB0002F3009F48AC0B3C04115510509F4A9C006
:100FC000BC01640F751F6530710508F0A2C02B834A
:100FD000FC01E05BFC4F90E020E030E061E070E07D
:100FE0008191882339F0DB01022E01C0AA0F0A94F7
:100FF000EAF79A2B2F5F3F4F4217530789F723C019
:101000004115510509F485C09C01240F351F24307A
:10101000310508F07EC0FB82FC01EC5AFC4F90E0E9
:1010200020E030E061E070E08191882339F0DB015D
:10103000022E01C0AA0F0A94EAF79A2B2F5F3F4FA6
:101040002417350789F79C8304E010E09FC0411501
:10105000510509F45EC09C01240F351F293031056C
:1010600008F057C0272F220F2B83880F991FFC01F0
:10107000E05CFC4FDE01149680E090E0219131911C
:101080003227232732272D933D9301968417950706
:10109000A9F70B8110E00D5F1F4F78C085309105D7
:1010A000C0F541152FEF520729F4FC01E05CFC4F1D
:1010B000F08A66C0452B29F4FC01E05CFC4F108AE5
:1010C0005FC000E010E083E027C04115510509F141
:1010D0009C01240F351F25303105D8F420915E0383
:1010E000FC01E05CFC4F80E090E030E011E0790131
:1010F000082E02C0F594E7940A94E2F7E0FE02C0DD
:10110000108B01C0108A019631964817590779F75C
:1011100037C000E010E082E0882341F001C081E0A8
:101120009A8190689A838B8303E010E0B801CE0126
:1011300001960E940A03E1E0F0E0EC0FFD1FE00FD2
:10114000F11F982789279827918380830E5F1F4F6F
:1011500010927803109277030E944006B801CE01E6
:1011600001960E94440668960FB6F894DEBF0FBE43
:10117000CDBFDF91CF911F910F91FF90EF90089518
:10118000BC83AB837E836D8306E010E080E0C4CF38
:10119000E0917903F0917A03F7FD379693E0F595A6
:1011A000E7959A95E1F7E358FC4F9081990F90836A
:1011B0009081892B808308950E94710483E090E0E0
:1011C00090937C0380937B0310927A0310927903AF
:1011D0000895882309F44DC080917B0390917C038E
:1011E0008430910581F18630910591F0039791F556
:1011F00088E592E00E9460048091790390917A03DF
:10120000019690937A038093790381E090E02CC05B
:101210008091790390917A03019690937A03809359
:1012200079038091790390917A03889761F40E9401
:101230000F0480913E0390913F03886090933F0399
:1012400080933E0335C080E991E00E94600485E010
:1012500090E00AC088E592E00E94600481E090E09E
:1012600090937A038093790390937C0380937B031C
:10127000089580917B0390917C0383309105D1F098
:101280005CF40297A9F488E592E00E946004109251
:101290007C0310927B0308958530910529F0069711
:1012A00039F481E090E002C080E090E00C94C8083E
:1012B0000C94DC0808950E94710480917B03909146
:1012C0007C038130910531F08530910529F1892B1E
:1012D00071F50AC082E090E090937C0380937B03D9
:1012E00080E991E00C94600480E991E00E94600440
:1012F0008091790390917A0304971CF483E090E045
:1013000011C084E090E090937C0380937B03109263
:101310007A0310927903089580E991E00E946004B5
:1013200086E090E090937C0380937B0308950C9477
:10133000DC088BE599E00E9454040E94DC0889EEE9
:1013400098E00E9404040C940C04CF93DF93FC01FA
:1013500090917D0380917E03890F90917F03890F87
:101360002091800390918103820F98132DC080916A
:101370007D03808380917E03881F8827881F848354
:1013800080917E0382958370858320917E032F70E8
:1013900030E0322F222780917F03282B20543140C8
:1013A00045E0429FC001439F900D112469E070E029
:1013B0000E94100A645F7140728361838091800390
:1013C0008383C1E0D0E002C0C0E0D0E00E940C0402
:1013D000CE01DF91CF910895DB018F939F930E94FF
:1013E000650ABF91AF91A29F800D911DA39F900DA3
:1013F000B29F900D11240895AA1BBB1B51E107C099
:10140000AA1FBB1FA617B70710F0A61BB70B881F94
:10141000991F5A95A9F780959095BC01CD01089523
:1014200097FB072E16F4009407D077FD09D00E9491
:10143000FC0907FC05D03EF4909581959F4F0895D7
:10144000709561957F4F0895A1E21A2EAA1BBB1BD0
:10145000FD010DC0AA1FBB1FEE1FFF1FA217B30780
:10146000E407F50720F0A21BB30BE40BF50B661F96
:10147000771F881F991F1A9469F76095709580955A
:1014800090959B01AC01BD01CF010895052E97FBFE
:101490001EF400940E945D0A57FD07D00E94240AA2
:1014A00007FC03D04EF40C945D0A5095409530959E
:1014B00021953F4F4F4F5F4F0895909580957095C0
:1014C00061957F4F8F4F9F4F08950E94780AA59F87
:1014D000900DB49F900DA49F800D911D112408952F
:1014E000B7FF0C94650A0E94650A821B930B08954E
:1014F000A29FB001B39FC001A39F700D811D112455
:10150000911DB29F700D811D1124911D0895F894B5
:02151000FFCF0B
:101512000208208000C0C101C30302C2C60607C779
:1015220005C5C404CC0C0DCD0FCFCE0E0ACACB0B11
:10153200C90908C8D81819D91BDBDA1A1EDEDF1F41
:10154200DD1D1CDC14D4D515D71716D6D21213D331
:1015520011D1D010F03031F133F3F23236F6F737E1
:10156200F53534F43CFCFD3DFF3F3EFEFA3A3BFBD1
:1015720039F9F83828E8E929EB2B2AEAEE2E2FEF81
:101582002DEDEC2CE42425E527E7E62622E2E323F1
:10159200E12120E0A06061A163A3A26266A6A76721
:1015A200A56564A46CACAD6DAF6F6EAEAA6A6BAB91
:1015B20069A9A86878B8B979BB7B7ABABE7E7FBFC1
:1015C2007DBDBC7CB47475B577B7B67672B2B373B1
:1015D200B17170B050909151935352929656579761
:1015E200559594549C5C5D9D5F9F9E5E5A9A9B5B51
:1015F20099595898884849894B8B8A4A4E8E8F4F01
:101602008D4D4C8C44848545874746868242438370
:101612004181804000C1814001C0804101C08041C0
:1016220000C1814001C0804100C1814000C18140B0
:1016320001C0804101C0804100C1814000C18140A0
:1016420001C0804100C1814001C0804101C0804190
:1016520000C1814001C0804100C1814000C1814080
:1016620001C0804100C1814001C0804101C0804170
:1016720000C1814000C1814001C0804101C0804160
:1016820000C1814001C0804100C1814000C1814050
:1016920001C0804101C0804100C1814000C1814040
:1016A20001C0804100C1814001C0804101C0804130
:1016B20000C1814000C1814001C0804101C0804120
:1016C20000C1814001C0804100C1814000C1814010
:1016D20001C0804100C1814001C0804101C0804100
:1016E20000C1814001C0804100C1814000C18140F0
:1016F20001C0804101C0804100C1814000C18140E0
:1017020001C0804100C1814001C0804101C08041CF
:0417120000C1814051
:00000001FF
